[
    {
        "txid" : "00a02e4346f85013b1618527284c3cd58397a0b64d069b6640abaf9d771b5107",
        "vout" : 0,
        "address" : "n3EHaCAycMEv6DhMPbrQsEubFsgtUmoin1",
        "scriptPubKey" : "76a914ee2bc9e048c81b2b63506b2e5990cebf822b759288ac",
        "amount" : 0.07824570,
        "confirmations" : 143,
        "txhex" : "0100000002d6ef7b69d54b0dc692cdde08a9fd12e169c4c8044bc87320ee84872eb31d3a21010000006b483045022100b65673a67e6b1b3e542dd39330bc04d28838bb80469a1cdd1d4e6d635cd5a822022076cdedbe3037cd9b637e50eafe76956e1f0de14bf20202cf39465744d1b3f16401210323a1646cf30153a3b9d9558023f184fcc439195d4ed84562a7eeb7c70ed77172ffffffffe0e91718a192795026e469f64de18f33eef43d6b035c6e23dabcb9dbb434cbaa000000006a47304402204b1cbb41ffde39facedd652943e22c82533276624562a0e5075e4d977fa389ac02205dc32585ae226b8c0b4e820d9f1d6fa5267c24c4b4782cd9479c307e12297f82012102bb4112bbe8762fac28d3047585332203d492dd7f279b564377dd4ccdc46ef517ffffffff02ba647700000000001976a914ee2bc9e048c81b2b63506b2e5990cebf822b759288ac00c2eb0b000000001976a9144838d8b3588c4c7ba7c1d06f866e9b3739c6303788ac00000000"
    },
    {
        "txid" : "8cc3c406bc75e9aa0f7bdc96769abc342df49fcea857ad8f3785f373469ecf3e",
        "vout" : 0,
        "address" : "mqPCfvqTfYctXMUfmniXeG2nyaN8w6tPmj",
        "scriptPubKey" : "76a9146c39ee7c8f3a5ffa6121b0304a7a0de9d3d9a15288ac",
        "amount" : 1.07824570,
        "confirmations" : 143,
        "txhex" : "0100000002d6ef7b69d54b0dc692cdde08a9fd12e169c4c8044bc87320ee84872eb31d3a21010000006b483045022100b65673a67e6b1b3e542dd39330bc04d28838bb80469a1cdd1d4e6d635cd5a822022076cdedbe3037cd9b637e50eafe76956e1f0de14bf20202cf39465744d1b3f16401210323a1646cf30153a3b9d9558023f184fcc439195d4ed84562a7eeb7c70ed77172ffffffffe0e91718a192795026e469f64de18f33eef43d6b035c6e23dabcb9dbb434cbaa000000006a47304402204b1cbb41ffde39facedd652943e22c82533276624562a0e5075e4d977fa389ac02205dc32585ae226b8c0b4e820d9f1d6fa5267c24c4b4782cd9479c307e12297f82012102bb4112bbe8762fac28d3047585332203d492dd7f279b564377dd4ccdc46ef517ffffffff02ba647700000000001976a9146c39ee7c8f3a5ffa6121b0304a7a0de9d3d9a15288ac00c2eb0b000000001976a9144838d8b3588c4c7ba7c1d06f866e9b3739c6303788ac00000000"
    },
    {
        "txid" : "1befa135e687812ab8a60678ac17f982daf008cd7094dc95fc65a0b8e4bd955e",
        "vout" : 0,
        "address" : "munimLLHjPhGeSU5rYB2HN79LJa8bRZr5b",
        "scriptPubKey" : "76a9149c8d1f5405451de6070bf1db86ab6accb495b62588ac",
        "amount" : 1.07824570,
        "confirmations" : 143,
        "txhex" : "0100000002d6ef7b69d54b0dc692cdde08a9fd12e169c4c8044bc87320ee84872eb31d3a21010000006b483045022100b65673a67e6b1b3e542dd39330bc04d28838bb80469a1cdd1d4e6d635cd5a822022076cdedbe3037cd9b637e50eafe76956e1f0de14bf20202cf39465744d1b3f16401210323a1646cf30153a3b9d9558023f184fcc439195d4ed84562a7eeb7c70ed77172ffffffffe0e91718a192795026e469f64de18f33eef43d6b035c6e23dabcb9dbb434cbaa000000006a47304402204b1cbb41ffde39facedd652943e22c82533276624562a0e5075e4d977fa389ac02205dc32585ae226b8c0b4e820d9f1d6fa5267c24c4b4782cd9479c307e12297f82012102bb4112bbe8762fac28d3047585332203d492dd7f279b564377dd4ccdc46ef517ffffffff02ba647700000000001976a9149c8d1f5405451de6070bf1db86ab6accb495b62588ac00c2eb0b000000001976a9144838d8b3588c4c7ba7c1d06f866e9b3739c6303788ac00000000"
    },
    {
        "txid" : "fea12706ef63c7ce57df3e1197b8b33e6a93ef2df07964ff654c14f1b900e17f",
        "vout" : 0,
        "address" : "mwtPsLQxW9xpm7gdLmwWvJK5ABdPUVJm42",
        "scriptPubKey" : "76a914b390187ef2854422ac5e4a2eb6ffe92496bef52388ac",
        "amount" : 1.07824570,
        "confirmations" : 143,
        "txhex" : "0100000002d6ef7b69d54b0dc692cdde08a9fd12e169c4c8044bc87320ee84872eb31d3a21010000006b483045022100b65673a67e6b1b3e542dd39330bc04d28838bb80469a1cdd1d4e6d635cd5a822022076cdedbe3037cd9b637e50eafe76956e1f0de14bf20202cf39465744d1b3f16401210323a1646cf30153a3b9d9558023f184fcc439195d4ed84562a7eeb7c70ed77172ffffffffe0e91718a192795026e469f64de18f33eef43d6b035c6e23dabcb9dbb434cbaa000000006a47304402204b1cbb41ffde39facedd652943e22c82533276624562a0e5075e4d977fa389ac02205dc32585ae226b8c0b4e820d9f1d6fa5267c24c4b4782cd9479c307e12297f82012102bb4112bbe8762fac28d3047585332203d492dd7f279b564377dd4ccdc46ef517ffffffff02ba647700000000001976a914b390187ef2854422ac5e4a2eb6ffe92496bef52388ac00c2eb0b000000001976a9144838d8b3588c4c7ba7c1d06f866e9b3739c6303788ac00000000"
    },
    {
        "txid" : "c018d940b7d338e57e121cbbb1880fdd8f4444d950ea041cdca17016fd320be8",
        "vout" : 0,
        "address" : "myAtcJEHAsDLbTkai6ipWDZeeL7VkxXsiM",
        "scriptPubKey" : "76a914c1a6de504b9bc0d0d6987312b2e37564079791b788ac",
        "amount" : 1.07824570,
        "confirmations" : 143,
        "txhex" : "0100000002d6ef7b69d54b0dc692cdde08a9fd12e169c4c8044bc87320ee84872eb31d3a21010000006b483045022100b65673a67e6b1b3e542dd39330bc04d28838bb80469a1cdd1d4e6d635cd5a822022076cdedbe3037cd9b637e50eafe76956e1f0de14bf20202cf39465744d1b3f16401210323a1646cf30153a3b9d9558023f184fcc439195d4ed84562a7eeb7c70ed77172ffffffffe0e91718a192795026e469f64de18f33eef43d6b035c6e23dabcb9dbb434cbaa000000006a47304402204b1cbb41ffde39facedd652943e22c82533276624562a0e5075e4d977fa389ac02205dc32585ae226b8c0b4e820d9f1d6fa5267c24c4b4782cd9479c307e12297f82012102bb4112bbe8762fac28d3047585332203d492dd7f279b564377dd4ccdc46ef517ffffffff02ba647700000000001976a914c1a6de504b9bc0d0d6987312b2e37564079791b788ac00c2eb0b000000001976a9144838d8b3588c4c7ba7c1d06f866e9b3739c6303788ac00000000"
    },
    {
        "txid" : "192f789889b5dedf82e80f1b86079ee81b26892e28a14ae0f034e7ff86ffe935",
        "vout" : 0,
        "address" : "mr5w8pZ8CffT9G33KQJWJzVrpt7J28w7U3",
        "scriptPubKey" : "76a91473ee04557ef514ba1fb1277f5cb13dec3dd6873f88ac",
        "amount" : 0.00005430,
        "confirmations" : 280,
        "txhex" : "01000000014f29b4cfaa6c00ef004be55882fc985bb3ad516462955604d6ebd16431b5ec2b010000006b4830450220705547c38a106a50f3773a3cd0f19ac2b4bc279b08f98f2b2d19b947c0195657022100f04fd17670bc602249152482e5b2010a769e757f5e0e21d194f2f4a98566a9af01210282b886c087eb37dc8182f14ba6cc3e9485ed618b95804d44aecc17c300b585b0ffffffff0336150000000000001976a91473ee04557ef514ba1fb1277f5cb13dec3dd6873f88ac054cb507000000001976a9144838d8b3588c4c7ba7c1d06f866e9b3739c6303788ac0000000000000000306a2e5445535400000028000152b63a290000000077359400000000003b9aca000000000000000000000013b00000003c00000000"
    },
    {
        "txid" : "1bf0a2fcc7fe29d4d2d9747c4eda7061510baade3ea925193606df7a37e5595e",
        "vout" : 0,
        "address" : "n3BrDB6zDiEPWEE6wLxywFb4Yp9ZY5fHM7",
        "scriptPubKey" : "76a914edb5c902eadd71e698a8ce05ba1d7b31efbaa57b88ac",
        "amount" : 0.00005430,
        "confirmations" : 139,
        "txhex" : "010000000196925fc2f7783437c2c37c7574a59b6082cec530b7cd2851933419c30b80e58f010000006b48304502205b97ec4ac5cad6872d15cc3a193c75e40f7a44161c42d78e6a2a5d5d1576b5a7022100e5019f05f1eebcd58c96f7a02966fab650d962d5413ae73000544d2e1f2e5f6801210282b886c087eb37dc8182f14ba6cc3e9485ed618b95804d44aecc17c300b585b0ffffffff0336150000000000001976a914edb5c902eadd71e698a8ce05ba1d7b31efbaa57b88acbd7d5d05000000001976a9144838d8b3588c4c7ba7c1d06f866e9b3739c6303788ac0000000000000000306a2e5445535400000028000152b77637000000000c8458800000000005f5e100408f88000000000000001eb30000001e00000000"
    },
    {
        "txid" : "21f679e1569b96c3e7a63250e22da5eee57d3f25baa09ced69ade197a979e31f",
        "vout" : 0,
        "address" : "n3BrDB6zDiEPWEE6wLxywFb4Yp9ZY5fHM7",
        "scriptPubKey" : "76a914edb5c902eadd71e698a8ce05ba1d7b31efbaa57b88ac",
        "amount" : 0.00005430,
        "confirmations" : 142,
        "txhex" : "0100000001b46c381b95ba4116abdbbda5dcef7b9d91cf849225b4d5f4facaa9794957b926000000006c49304602210084728b3b8ae9e9a2bbbf46a69a1a9541325c331981ea9681d57841d2f30872b1022100d310fb44a3050882a6fe63a7acdae84c37182bfbbd1520816c05fcc0df8f91e401210282b886c087eb37dc8182f14ba6cc3e9485ed618b95804d44aecc17c300b585b0ffffffff0336150000000000001976a914edb5c902eadd71e698a8ce05ba1d7b31efbaa57b88acba85eb0b000000001976a9144838d8b3588c4c7ba7c1d06f866e9b3739c6303788ac0000000000000000306a2e5445535400000028000152b776370000000005f5e100000000000c845880408f88000000000000001eb30000001e00000000"
    },
    {
        "txid" : "2479cdb202fe8379a5b2be195c97f9bb9dcb13097e5228787dc81ed7382c1b0d",
        "vout" : 0,
        "address" : "n3BrDB6zDiEPWEE6wLxywFb4Yp9ZY5fHM7",
        "scriptPubKey" : "76a914edb5c902eadd71e698a8ce05ba1d7b31efbaa57b88ac",
        "amount" : 0.00005430,
        "confirmations" : 140,
        "txhex" : "01000000013af47c907c5b5ec62f11d236681cd9a9c6f1c0a5f8453cfd5fc5a4ce9fd5b05c010000006a47304402203b849728698664cefd6bf1083837affb7fdd58b11b461c79fa1a92c3981c6a4102204d12b081407884736b97e651673a3024a6d0419a52071200fcde783854ef960001210282b886c087eb37dc8182f14ba6cc3e9485ed618b95804d44aecc17c300b585b0ffffffff0336150000000000001976a914edb5c902eadd71e698a8ce05ba1d7b31efbaa57b88ac49f65d05000000001976a9144838d8b3588c4c7ba7c1d06f866e9b3739c6303788ac0000000000000000306a2e5445535400000028000052b77637000000000d1cef000000000005f5e100408f880000000000000027600000001e00000000"
    },
    {
        "txid" : "2becb53164d1ebd6045695626451adb35b98fc8258e54b00ef006caacfb4294f",
        "vout" : 0,
        "address" : "mr5w8pZ8CffT9G33KQJWJzVrpt7J28w7U3",
        "scriptPubKey" : "76a91473ee04557ef514ba1fb1277f5cb13dec3dd6873f88ac",
        "amount" : 0.00005430,
        "confirmations" : 280,
        "txhex" : "010000000116ea0670fc6e4f14134f86167868fea90f05f08b7872e262fab7c84aa720b6ee010000006a4730440220438aa2dbbb28ee3c0dd3fad5199f7e40fca9f87d19e8b0131c620411b262038c0220318ee9b3ab7686566196c835717ca25e6e65164eeb35cc3d8316339c6489135201210282b886c087eb37dc8182f14ba6cc3e9485ed618b95804d44aecc17c300b585b0ffffffff0336150000000000001976a91473ee04557ef514ba1fb1277f5cb13dec3dd6873f88ac4c88b507000000001976a9144838d8b3588c4c7ba7c1d06f866e9b3739c6303788ac0000000000000000306a2e5445535400000028000052b63a29000000003b9aca0000000000773594000000000000000000000013b00000003c00000000"
    },
    {
        "txid" : "4c2e09d9a4ac03d2f2aa5b564c0df2f0d099e6ad012b8697100c9e30b1903988",
        "vout" : 0,
        "address" : "n3BrDB6zDiEPWEE6wLxywFb4Yp9ZY5fHM7",
        "scriptPubKey" : "76a914edb5c902eadd71e698a8ce05ba1d7b31efbaa57b88ac",
        "amount" : 0.00005430,
        "confirmations" : 145,
        "txhex" : "01000000025242a97c956e4302743ea70f256680cef0e61728f9035ca2b6d8a0c3fd8b9806000000006b48304502202e762f27b2de121db215de2940c3d9fdd140d71cc86b64830a398386b48e31a7022100c2f72ea353fd5bd7382d34c84a9757f0e64e0b7d850e4fed45ca1ead192aa1d001210282b886c087eb37dc8182f14ba6cc3e9485ed618b95804d44aecc17c300b585b0ffffffff5242a97c956e4302743ea70f256680cef0e61728f9035ca2b6d8a0c3fd8b9806010000006c493046022100ce1a368068dfa5c9094372214a30dd9e015fa4f4d48c7bc42f53fdc550159c0a0221008203ccfc689b5dfa1d1d54cc3edb3599f9a4eef66b4a2b0b9fc1e2e8681edad201210282b886c087eb37dc8182f14ba6cc3e9485ed618b95804d44aecc17c300b585b0ffffffff0336150000000000001976a914edb5c902eadd71e698a8ce05ba1d7b31efbaa57b88accbe32807000000001976a9144838d8b3588c4c7ba7c1d06f866e9b3739c6303788ac0000000000000000306a2e5445535400000028000052b7763700000002540be40000000004a817c800408f880000000000000027600000001e00000000"
    },
    {
        "txid" : "5cb0d59fcea4c55ffd3c45f8a5c0f1c6a9d91c6836d2112fc65e5b7c907cf43a",
        "vout" : 0,
        "address" : "n3BrDB6zDiEPWEE6wLxywFb4Yp9ZY5fHM7",
        "scriptPubKey" : "76a914edb5c902eadd71e698a8ce05ba1d7b31efbaa57b88ac",
        "amount" : 0.00005430,
        "confirmations" : 140,
        "txhex" : "0100000001b46c381b95ba4116abdbbda5dcef7b9d91cf849225b4d5f4facaa9794957b926010000006a473044022069aa501d12902a3b0a127ed77b08d0bb59135339a8b2b893b0a7228faf24a533022055c0625ccb7ebd60b9c351740bde1db01ffbab5147a1a94576205e31d2c84b0c01210282b886c087eb37dc8182f14ba6cc3e9485ed618b95804d44aecc17c300b585b0ffffffff0336150000000000001976a914edb5c902eadd71e698a8ce05ba1d7b31efbaa57b88ac8f325e05000000001976a9144838d8b3588c4c7ba7c1d06f866e9b3739c6303788ac0000000000000000306a2e5445535400000028000052b77637000000000c8458800000000005f5e100408f880000000000000027600000001e00000000"
    },
    {
        "txid" : "8fe5800bc31934935128cdb730c5ce82609ba574757cc3c2373478f7c25f9296",
        "vout" : 0,
        "address" : "n3BrDB6zDiEPWEE6wLxywFb4Yp9ZY5fHM7",
        "scriptPubKey" : "76a914edb5c902eadd71e698a8ce05ba1d7b31efbaa57b88ac",
        "amount" : 0.00005430,
        "confirmations" : 139,
        "txhex" : "01000000010d1b2c38d71ec87d7828527e0913cb9dbbf9975c19beb2a57983fe02b2cd7924010000006b48304502201072d1172e0851a6e83ece5ad834715504e63a2aabcfe4daea68d2f77e4bef3b022100d7ed4a6cbca29a8d8ac74030ec385fc955d96cf0bfb2fbac889a92fe5be0c81f01210282b886c087eb37dc8182f14ba6cc3e9485ed618b95804d44aecc17c300b585b0ffffffff0336150000000000001976a914edb5c902eadd71e698a8ce05ba1d7b31efbaa57b88ac03ba5d05000000001976a9144838d8b3588c4c7ba7c1d06f866e9b3739c6303788ac0000000000000000306a2e5445535400000028000152b77637000000001a39de00000000000bebc200408f880000000000000027600000001e00000000"
    },
    {
        "txid" : "92ab34d58cb4ee8e870047ba9ad122bb0b63736021ec2e59d8a0b25608d11184",
        "vout" : 0,
        "address" : "n3BrDB6zDiEPWEE6wLxywFb4Yp9ZY5fHM7",
        "scriptPubKey" : "76a914edb5c902eadd71e698a8ce05ba1d7b31efbaa57b88ac",
        "amount" : 0.00005430,
        "confirmations" : 141,
        "txhex" : "01000000011fe379a997e1ad69ed9ca0ba253f7de5eea52de25032a6e7c3969b56e179f621010000006b4830450220325923b2359bf8c03206cb1a9a93df67a973dd0d8bacf2a6e5ac76143f22aaa00221008f611ffd320a9353a77b1fe4ea2c6402eeaa32fd6986da0a459d33bcd1fd3e8601210282b886c087eb37dc8182f14ba6cc3e9485ed618b95804d44aecc17c300b585b0ffffffff0336150000000000001976a914edb5c902eadd71e698a8ce05ba1d7b31efbaa57b88ac7449eb0b000000001976a9144838d8b3588c4c7ba7c1d06f866e9b3739c6303788ac0000000000000000306a2e5445535400000028000152b776370000000005f5e100000000000c845880408f880000000000000027600000001e00000000"
    },
    {
        "txid" : "96ada5fb5f2f85b7384b5c3d5505a7a107cb1d34a260cd672d85b0adc2ddd79d",
        "vout" : 0,
        "address" : "mnkzHBHRkBWoP9aFtocDe5atxmRfSRHnjR",
        "account" : "",
        "scriptPubKey" : "76a9144f705c616359ce6145a822d41a6c079fba102f7388ac",
        "amount" : 0.00005430,
        "confirmations" : 318,
        "txhex" : "0100000001531de1035b5d6bd3be699193d657b859aab28e9b921351145955c4c4264e9c9f000000006b48304502201b2f2cd7f43a53fa6efc9069dc5c061617a7e20440bc8b2ae0cf246f8f330162022100d4c1a597fb062b7d14b4429ede87659c298539bef6cf04feb1a0738039e87f4f01210282b886c087eb37dc8182f14ba6cc3e9485ed618b95804d44aecc17c300b585b0ffffffff0336150000000000001976a9144f705c616359ce6145a822d41a6c079fba102f7388ac1a66fa02000000001976a9144838d8b3588c4c7ba7c1d06f866e9b3739c6303788ac00000000000000001a6a1854455354000000000000000000000004000000003b9aca0000000000"
    },
    {
        "txid" : "a09a0df612afb1dc0eb8709dccb1a70da24a1062e137cb927892b7a3cbde1616",
        "vout" : 0,
        "address" : "n3BrDB6zDiEPWEE6wLxywFb4Yp9ZY5fHM7",
        "scriptPubKey" : "76a914edb5c902eadd71e698a8ce05ba1d7b31efbaa57b88ac",
        "amount" : 0.00005430,
        "confirmations" : 145,
        "txhex" : "0100000001883990b1309e0c1097862b01ade699d0f0f20d4c565baaf2d203aca4d9092e4c010000006c493046022100d9287a4b8c2befd4d0c1644124afe0213ba4f8ef89fc011b4bd2f5f855ce29f5022100e9a6261b862b79d47143bcf37e78769d7e140dcc2ba1fc2313c59a7f1650ae5701210282b886c087eb37dc8182f14ba6cc3e9485ed618b95804d44aecc17c300b585b0ffffffff0336150000000000001976a914edb5c902eadd71e698a8ce05ba1d7b31efbaa57b88ac85a72807000000001976a9144838d8b3588c4c7ba7c1d06f866e9b3739c6303788ac0000000000000000306a2e5445535400000028000152b7763700000002540be40000000004e3b29200408f88000000000000001eb30000001e00000000"
    },
    {
        "txid" : "ad06a9a1fc857b481c30fcd958e7e2bbe0b4ceb6d16639b5724de1f210faf3ae",
        "vout" : 0,
        "address" : "mwPwzBt5DztmswsXvokMLzPMMuzbRqN7Zs",
        "scriptPubKey" : "76a914ae2ed7fb5e1e9afd6d1ca3d46342f8dc8d2273a388ac",
        "amount" : 0.13561990,
        "confirmations" : 359,
        "txhex" : "01000000017b82aa624fe42e985ff655e0db5af9117393b06274b8fd156fe36bc832f7e091010000006a47304402203aee57dcecdae2b510cecc99ce44e088171c044c33c45573e0b1e0df23a45eb80220188db886cf47e816a5a85aeaf1f0d899936e79be20ed29f6a8b17016e9858377012103effca495e31b0afb8742d547c0e1c6ebad14c26dd0a8b96f614870139ad9eeb9ffffffff0286f0ce00000000001976a914ae2ed7fb5e1e9afd6d1ca3d46342f8dc8d2273a388ac40420f00000000001976a914a1daf5037fc5f5219e3dd6bf14384c5957abed3588ac00000000"
    },
    {
        "txid" : "ae241be7be83ebb14902757ad94854f787d9730fc553d6f695346c9375c0d8c1",
        "vout" : 0,
        "address" : "mn6q3dS2EnDUx3bmyWc6D4szJNVGtaR7zc",
        "account" : "",
        "scriptPubKey" : "76a9144838d8b3588c4c7ba7c1d06f866e9b3739c6303788ac",
        "amount" : 1.99909140,
        "confirmations" : 74,
        "txhex" : "0100000002eff195acdf2bbd215daa8aca24eb667b563a731d34a9ab75c8d8df5df08be29b000000006c493046022100ec6fa8316a4f5cfd69816e31011022acce0933bd3b01248caa8b49e60de1b98a022100987ba974b2a4f9976a8d61d94009cb7f7986a827dc5730e999de1fb748d2046c01210282b886c087eb37dc8182f14ba6cc3e9485ed618b95804d44aecc17c300b585b0ffffffffeff195acdf2bbd215daa8aca24eb667b563a731d34a9ab75c8d8df5df08be29b010000006a47304402201f8fb2d62df22592cb8d37c68ab26563dbb8e270f7f8409ac0f6d7b24ddb5c940220314e5c767fd12b20116528c028eab2bfbad30eb963bd849993410049cf14a83d01210282b886c087eb37dc8182f14ba6cc3e9485ed618b95804d44aecc17c300b585b0ffffffff02145fea0b000000001976a9144838d8b3588c4c7ba7c1d06f866e9b3739c6303788ac0000000000000000346a32544553540000000a00000000000000010000000005f5e1000000000000000000000000000bebc2000032000000000000271000000000"
    },
    {
        "txid" : "b9fc3aa355b77ecb63282fc96e63912a253e98bf9cf441fbfbecc3fb277c4985",
        "vout" : 0,
        "address" : "mtQheFaSfWELRB2MyMBaiWjdDm6ux9Ezns",
        "scriptPubKey" : "76a9148d6ae8a3b381663118b4e1eff4cfc7d0954dd6ec88ac",
        "amount" : 0.11121663,
        "confirmations" : 74,
        "txhex" : "0100000003114bbc2ce4f18490cd33fa17ad747f2cbb932fe4bd628e7729f18e73caa9c824000000006b4830450220170594244dacb99013340f07ca7da05c91d2f235094481213abf3b3648ff12ab022100ea612f4326e074daeb3f3b92bce7862c7377d16e66930415cb33930e773d8600012103bdd82e7398e604438316511b7be56925256b5b1f64b508432f4b4e3e728db637ffffffff22fcc4468552b950781e3facbf75a27b8d633cb7299f02b4bcc3615d9923bcfb000000006b483045022051ed13a5bf5e9ea753f0b2e4e76d1bea73de912e214314ed96e043ad21f53dee022100f6556d547c5012fcbd3348f71da8fe03eb101f73b7b1b366e3937119cc87a90c01210282b886c087eb37dc8182f14ba6cc3e9485ed618b95804d44aecc17c300b585b0ffffffffe5237334401359af1cc80b3b4af969fab42e92e636ef0523df6b68122f23d952000000006b483045022100cd74fe9ca13e44607521f410468979ed9e0b3addef2a9d48e08bf608d72c446c022058753f930f2d394410c3e6e950788e6b0371d4403ef5a9dc194980218de5ac76012102ab7a70956655c4d4cc44b73587ae70a21ab0db9ba8d704b97d911ea3bf1e5d67ffffffff02ffb3a900000000001976a9148d6ae8a3b381663118b4e1eff4cfc7d0954dd6ec88ac0065cd1d000000001976a914d1ba3ba3d6f5ad06b148bcc04151ecab84fc397988ac00000000"
    },
    {
        "txid" : "eeb620a74ac8b7fa62e272788bf0050fa9fe687816864f13144f6efc7006ea16",
        "vout" : 0,
        "address" : "n3BrDB6zDiEPWEE6wLxywFb4Yp9ZY5fHM7",
        "scriptPubKey" : "76a914edb5c902eadd71e698a8ce05ba1d7b31efbaa57b88ac",
        "amount" : 0.00005430,
        "confirmations" : 281,
        "txhex" : "010000000194f1782ab8c95bafcaefedcc21531cde0d8a883def88ac5fc132f69dc8ad133a010000006b483045022100b63ad9df51d936b4a4a49b447e4733fc773739b80d4f8d3c77c13a0753ed491802203df8a50a82183153b7d38aff3ae2dbdf817f33d79f1d7d5b93a5460b2cd724a501210282b886c087eb37dc8182f14ba6cc3e9485ed618b95804d44aecc17c300b585b0ffffffff0336150000000000001976a914edb5c902eadd71e698a8ce05ba1d7b31efbaa57b88ac92c4b507000000001976a9144838d8b3588c4c7ba7c1d06f866e9b3739c6303788ac0000000000000000306a2e5445535400000028000152b596c4000000001dcd6500000000001dcd6500000000000000000000004ec00000003c00000000"
    },
    {
        "txid" : "e43c357b78baf473fd21cbc1481ac450746b60cf1d2702ce3a73a8811811e3eb",
        "vout" : 0,
        "address" : "mtQheFaSfWELRB2MyMBaiWjdDm6ux9Ezns",
        "scriptPubKey" : "76a9148d6ae8a3b381663118b4e1eff4cfc7d0954dd6ec88ac",
        "amount" : 1.00000000,
        "confirmations" : 2,
        "txhex" : "0100000001980b1a29634f263b00e5301519c153edd65c9149445c9dfdf175b07782388a84000000006a4730440220438f0878ec34cbb676ad8d8badcf81d93a7748a7b85c5841c5bed024b0ad287602203bd635a7d15ccabe235da9cf5086e9a2611242b0e894bd2f9f66a1d4de3fff3d01210276e73c0c0b5af814085f9a9bec7421bc97bc84c4f5bbdf4f6973bd04e16765e7ffffffff0100e1f505000000001976a9148d6ae8a3b381663118b4e1eff4cfc7d0954dd6ec88ac00000000"
    },
    {
        "txid": "dc4f91c42eb79898b266ee237eed0d501b8b1a843f69aed847ad740e1933f85e",
        "vout": 1,
        "address": "mnfAHmddVibnZNSkh8DvKaQoiEfNsxjXzH",
        "scriptPubKey": "76a9144e5638a01efbb2f292481797ae1dcfcdaeb98d0088ac",
        "amount": 1.934276,
        "confirmations": 6,
        "txhex" : "0100000001bf73e96f722ccae5b7e3b40a736259e9ae073d29f09b0db1585e19e573f43310010000006b483045022100b9045b2f701c991ab2a34700e836a4e6eaef4bb524c6a3d6a420d7344397fa3802206eccc789bb8c9a325c61dc44759dd783823691a52f3a3a62afcd3dd0c30a6a4301210378ee11c3fb97054877a809ce083db292b16d971bcdc6aa4c8f92087133729d8bffffffff0200a3e111000000001976a9148b11880510113f68d20053f710fc6440d97ea7c188ac9078870b000000001976a9144e5638a01efbb2f292481797ae1dcfcdaeb98d0088ac00000000"
    },
    {
        "txid": "5f00a83de4b1acc6a510a03552679041fffaae22de1fffdbe309a36bb6111505",
        "vout": 0,
        "address": "1_mn6q3dS2EnDUx3bmyWc6D4szJNVGtaR7zc_mtQheFaSfWELRB2MyMBaiWjdDm6ux9Ezns_2",
        "scriptPubKey": "51210282b886c087eb37dc8182f14ba6cc3e9485ed618b95804d44aecc17c300b585b0210319f6e07b0b8d756156394b9dcf3b011fe9ac19f2700bd6b69a6a1783dbb8b97752ae",
        "amount": 1.00000000,
        "confirmations": 6,
        "txhex" : "01000000013e6235b8d6ca0ebabe3bf36536cc14f9e47cf4bdfe970cbb9b92a02739039aa4010000006b4830450221008484ed7c44610241f3ed924f7921686bf050c1cdb71b985d3ee4e3b9c35847c00220090ed63e8f973661b091aef870c265bb129a9b9de979fb373a04af5229837e480121037af2e06061b54cdfe3657bbc8496d69000b822e2db0c86ccbe376346a700b833ffffffff0200e1f505000000004751210282b886c087eb37dc8182f14ba6cc3e9485ed618b95804d44aecc17c300b585b0210319f6e07b0b8d756156394b9dcf3b011fe9ac19f2700bd6b69a6a1783dbb8b97752aef8d2b01c000000001976a9146c39ee7c8f3a5ffa6121b0304a7a0de9d3d9a15288ac00000000"
    },
    {
        "txid": "9d34af75fca5282eb97f1aba6cf0f23e78556e6fc04a16e013351d841093d539",
        "vout": 0,
        "address": "1_mn6q3dS2EnDUx3bmyWc6D4szJNVGtaR7zc_mtQheFaSfWELRB2MyMBaiWjdDm6ux9Ezns_2",
        "scriptPubKey": "51210282b886c087eb37dc8182f14ba6cc3e9485ed618b95804d44aecc17c300b585b0210319f6e07b0b8d756156394b9dcf3b011fe9ac19f2700bd6b69a6a1783dbb8b97752ae",
        "amount": 1.00000000,
        "confirmations": 6,
        "txhex" : "010000000172aa75bfa8566d6e9267fe4fb30a9f5a426ee48cbd51d23ad6374ddfada54a5f010000006a4730440220442ea80a3348604e500170e5d4cdb2442d7bfc4d3970dd96162d1ce5f44bfa5f022024a0f4c1bdd75ab7bc77a1b42c21410364dad81418ddfd369cf76714e0da9bc40121037af2e06061b54cdfe3657bbc8496d69000b822e2db0c86ccbe376346a700b833ffffffff0200e1f505000000004751210282b886c087eb37dc8182f14ba6cc3e9485ed618b95804d44aecc17c300b585b0210319f6e07b0b8d756156394b9dcf3b011fe9ac19f2700bd6b69a6a1783dbb8b97752ae20ed9b0d000000001976a9146c39ee7c8f3a5ffa6121b0304a7a0de9d3d9a15288ac00000000"
    },
    {
        "txid": "5f4aa5addf4d37d63ad251bd8ce46e425a9f0ab34ffe67926e6d56a8bf75aa72",
        "vout": 0,
        "address": "1_mnfAHmddVibnZNSkh8DvKaQoiEfNsxjXzH_mtQheFaSfWELRB2MyMBaiWjdDm6ux9Ezns_2",
        "scriptPubKey": "51210319f6e07b0b8d756156394b9dcf3b011fe9ac19f2700bd6b69a6a1783dbb8b977210378ee11c3fb97054877a809ce083db292b16d971bcdc6aa4c8f92087133729d8b52ae",
        "amount": 1.50000000,
        "confirmations": 6,
        "txhex" : "0100000001f4f6855e007ee78f8fa69821f76f2b2a7fce9ca1354006d79f16de36e739b42c010000006a47304402207c4dcab23b73eb00c04914dc7b28eae1b16d402a5e700c861aaa07adc698157702201221052078a51ac176e58c088d284bcc460013d241b234a603a674fb7f027c6c0121037af2e06061b54cdfe3657bbc8496d69000b822e2db0c86ccbe376346a700b833ffffffff0280d1f008000000004751210319f6e07b0b8d756156394b9dcf3b011fe9ac19f2700bd6b69a6a1783dbb8b977210378ee11c3fb97054877a809ce083db292b16d971bcdc6aa4c8f92087133729d8b52ae30f59113000000001976a9146c39ee7c8f3a5ffa6121b0304a7a0de9d3d9a15288ac00000000"
    },
    {
        "txid": "070bfe81412d873fb6ff08ae5c6463b4c6cea39894b46fb574af7fd86fd417bc",
        "vout": 0,
        "address": "2_mn6q3dS2EnDUx3bmyWc6D4szJNVGtaR7zc_mtQheFaSfWELRB2MyMBaiWjdDm6ux9Ezns_2",
        "scriptPubKey": "52210282b886c087eb37dc8182f14ba6cc3e9485ed618b95804d44aecc17c300b585b0210319f6e07b0b8d756156394b9dcf3b011fe9ac19f2700bd6b69a6a1783dbb8b97752ae",
        "amount": 3.00000000,
        "confirmations": 6,
        "txhex" : "0100000001cefce4729f256a8f36ba55c29471b80643783b1bcc3a27008cd7a9ad5311974f010000001976a9146c39ee7c8f3a5ffa6121b0304a7a0de9d3d9a15288acffffffff0200a3e111000000004752210282b886c087eb37dc8182f14ba6cc3e9485ed618b95804d44aecc17c300b585b0210319f6e07b0b8d756156394b9dcf3b011fe9ac19f2700bd6b69a6a1783dbb8b97752ae68e22318010000001976a9146c39ee7c8f3a5ffa6121b0304a7a0de9d3d9a15288ac00000000"
    },
    {
        "txid": "91fbeea32ba9e3db00093cf79da1ecc9a226e23ae5ef00041a49f2c757d86f5e",
        "vout": 0,
        "address": "2_mnfAHmddVibnZNSkh8DvKaQoiEfNsxjXzH_mtQheFaSfWELRB2MyMBaiWjdDm6ux9Ezns_2",
        "scriptPubKey": "52210319f6e07b0b8d756156394b9dcf3b011fe9ac19f2700bd6b69a6a1783dbb8b977210378ee11c3fb97054877a809ce083db292b16d971bcdc6aa4c8f92087133729d8b52ae",
        "amount": 3.00000000,
        "confirmations": 6,
        "txhex" : "0100000001bc17d46fd87faf74b56fb49498a3cec6b463645cae08ffb63f872d4181fe0b07010000001976a9146c39ee7c8f3a5ffa6121b0304a7a0de9d3d9a15288acffffffff0200a3e111000000004752210319f6e07b0b8d756156394b9dcf3b011fe9ac19f2700bd6b69a6a1783dbb8b977210378ee11c3fb97054877a809ce083db292b16d971bcdc6aa4c8f92087133729d8b52ae58184206010000001976a9146c39ee7c8f3a5ffa6121b0304a7a0de9d3d9a15288ac00000000"
    },
    {
        "txid": "f4011d923cf1819a8949f430b008b67a179e19772c73dcf55199f69fc54ef8a7",
        "vout": 0,
        "address": "1_mn6q3dS2EnDUx3bmyWc6D4szJNVGtaR7zc_mnfAHmddVibnZNSkh8DvKaQoiEfNsxjXzH_mtQheFaSfWELRB2MyMBaiWjdDm6ux9Ezns_3",
        "scriptPubKey": "51210282b886c087eb37dc8182f14ba6cc3e9485ed618b95804d44aecc17c300b585b0210319f6e07b0b8d756156394b9dcf3b011fe9ac19f2700bd6b69a6a1783dbb8b977210378ee11c3fb97054877a809ce083db292b16d971bcdc6aa4c8f92087133729d8b53ae",
        "amount": 3.00000000,
        "confirmations": 6,
        "txhex" : "01000000015e6fd857c7f2491a0400efe53ae226a2c9eca19df73c0900dbe3a92ba3eefb91010000001976a9146c39ee7c8f3a5ffa6121b0304a7a0de9d3d9a15288acffffffff0200a3e111000000006951210282b886c087eb37dc8182f14ba6cc3e9485ed618b95804d44aecc17c300b585b0210319f6e07b0b8d756156394b9dcf3b011fe9ac19f2700bd6b69a6a1783dbb8b977210378ee11c3fb97054877a809ce083db292b16d971bcdc6aa4c8f92087133729d8b53ae484e60f4000000001976a9146c39ee7c8f3a5ffa6121b0304a7a0de9d3d9a15288ac00000000"
    },
    {
        "txid": "02f95716d3c93a1e81b926d9d8d5f05b6f382c115d9ecf0dd0bc9514b0e08649",
        "vout": 0,
        "address": "1_mn6q3dS2EnDUx3bmyWc6D4szJNVGtaR7zc_mnfAHmddVibnZNSkh8DvKaQoiEfNsxjXzH_mqPCfvqTfYctXMUfmniXeG2nyaN8w6tPmj_3",
        "scriptPubKey": "51210282b886c087eb37dc8182f14ba6cc3e9485ed618b95804d44aecc17c300b585b0210378ee11c3fb97054877a809ce083db292b16d971bcdc6aa4c8f92087133729d8b21037af2e06061b54cdfe3657bbc8496d69000b822e2db0c86ccbe376346a700b83353ae",
        "amount": 3.00000000,
        "confirmations": 6,
        "txhex" : "0100000001a7f84ec59ff69951f5dc732c77199e177ab608b030f449899a81f13c921d01f4010000001976a9146c39ee7c8f3a5ffa6121b0304a7a0de9d3d9a15288acffffffff0200a3e111000000006951210282b886c087eb37dc8182f14ba6cc3e9485ed618b95804d44aecc17c300b585b0210378ee11c3fb97054877a809ce083db292b16d971bcdc6aa4c8f92087133729d8b21037af2e06061b54cdfe3657bbc8496d69000b822e2db0c86ccbe376346a700b83353ae38847ee2000000001976a9146c39ee7c8f3a5ffa6121b0304a7a0de9d3d9a15288ac00000000"
    },
    {
        "txid": "d331d71f0f5d5f62261d6f18019459f9a0711c1fa0a0e38004386319cefbccfc",
        "vout": 0,
        "address": "2_mn6q3dS2EnDUx3bmyWc6D4szJNVGtaR7zc_mnfAHmddVibnZNSkh8DvKaQoiEfNsxjXzH_mtQheFaSfWELRB2MyMBaiWjdDm6ux9Ezns_3",
        "scriptPubKey": "52210282b886c087eb37dc8182f14ba6cc3e9485ed618b95804d44aecc17c300b585b0210319f6e07b0b8d756156394b9dcf3b011fe9ac19f2700bd6b69a6a1783dbb8b977210378ee11c3fb97054877a809ce083db292b16d971bcdc6aa4c8f92087133729d8b53ae",
        "amount": 3.00000000,
        "confirmations": 6,
        "txhex" : "01000000014986e0b01495bcd00dcf9e5d112c386f5bf0d5d8d926b9811e3ac9d31657f902010000001976a9146c39ee7c8f3a5ffa6121b0304a7a0de9d3d9a15288acffffffff0200a3e111000000006952210282b886c087eb37dc8182f14ba6cc3e9485ed618b95804d44aecc17c300b585b0210319f6e07b0b8d756156394b9dcf3b011fe9ac19f2700bd6b69a6a1783dbb8b977210378ee11c3fb97054877a809ce083db292b16d971bcdc6aa4c8f92087133729d8b53ae28ba9cd0000000001976a9146c39ee7c8f3a5ffa6121b0304a7a0de9d3d9a15288ac00000000"
    },
    {
        "txid": "8ca0d52b413cd1a3eaf6ffb61a20e376bbde3952fdb5e6d812f7ad5238486e02",
        "vout": 0,
        "address": "2_mn6q3dS2EnDUx3bmyWc6D4szJNVGtaR7zc_mnfAHmddVibnZNSkh8DvKaQoiEfNsxjXzH_mqPCfvqTfYctXMUfmniXeG2nyaN8w6tPmj_3",
        "scriptPubKey": "52210282b886c087eb37dc8182f14ba6cc3e9485ed618b95804d44aecc17c300b585b0210378ee11c3fb97054877a809ce083db292b16d971bcdc6aa4c8f92087133729d8b21037af2e06061b54cdfe3657bbc8496d69000b822e2db0c86ccbe376346a700b83353ae",
        "amount": 3.00000000,
        "confirmations": 6,
        "txhex" : "0100000001fcccfbce1963380480e3a0a01f1c71a0f9599401186f1d26625f5d0f1fd731d3010000001976a9146c39ee7c8f3a5ffa6121b0304a7a0de9d3d9a15288acffffffff0200a3e111000000006952210282b886c087eb37dc8182f14ba6cc3e9485ed618b95804d44aecc17c300b585b0210378ee11c3fb97054877a809ce083db292b16d971bcdc6aa4c8f92087133729d8b21037af2e06061b54cdfe3657bbc8496d69000b822e2db0c86ccbe376346a700b83353ae18f0babe000000001976a9146c39ee7c8f3a5ffa6121b0304a7a0de9d3d9a15288ac00000000"
    },
    {
        "txid": "39091e24e0d0e3aae34250d89d4b7ec8c46778c457c4b2f401ed8b35945a8440",
        "vout": 0,
        "address": "3_mn6q3dS2EnDUx3bmyWc6D4szJNVGtaR7zc_mnfAHmddVibnZNSkh8DvKaQoiEfNsxjXzH_mtQheFaSfWELRB2MyMBaiWjdDm6ux9Ezns_3",
        "scriptPubKey": "53210282b886c087eb37dc8182f14ba6cc3e9485ed618b95804d44aecc17c300b585b0210319f6e07b0b8d756156394b9dcf3b011fe9ac19f2700bd6b69a6a1783dbb8b977210378ee11c3fb97054877a809ce083db292b16d971bcdc6aa4c8f92087133729d8b53ae",
        "amount": 3.00000000,
        "confirmations": 6,
        "txhex" : "0100000001026e483852adf712d8e6b5fd5239debb76e3201ab6fff6eaa3d13c412bd5a08c010000001976a9146c39ee7c8f3a5ffa6121b0304a7a0de9d3d9a15288acffffffff0200a3e111000000006953210282b886c087eb37dc8182f14ba6cc3e9485ed618b95804d44aecc17c300b585b0210319f6e07b0b8d756156394b9dcf3b011fe9ac19f2700bd6b69a6a1783dbb8b977210378ee11c3fb97054877a809ce083db292b16d971bcdc6aa4c8f92087133729d8b53ae0826d9ac000000001976a9146c39ee7c8f3a5ffa6121b0304a7a0de9d3d9a15288ac00000000"
    },
    {
        "txid": "057e944eae80cb9ff07887da27306d59020da264b6534fd1842b80105b0efef4",
        "vout": 0,
        "address": "3_mn6q3dS2EnDUx3bmyWc6D4szJNVGtaR7zc_mnfAHmddVibnZNSkh8DvKaQoiEfNsxjXzH_mqPCfvqTfYctXMUfmniXeG2nyaN8w6tPmj_3",
        "scriptPubKey": "53210282b886c087eb37dc8182f14ba6cc3e9485ed618b95804d44aecc17c300b585b0210378ee11c3fb97054877a809ce083db292b16d971bcdc6aa4c8f92087133729d8b21037af2e06061b54cdfe3657bbc8496d69000b822e2db0c86ccbe376346a700b83353ae",
        "amount": 3.00000000,
        "confirmations": 6,
        "txhex" : "010000000140845a94358bed01f4b2c457c47867c4c87e4b9dd85042e3aae3d0e0241e0939010000001976a9146c39ee7c8f3a5ffa6121b0304a7a0de9d3d9a15288acffffffff0200a3e111000000006953210282b886c087eb37dc8182f14ba6cc3e9485ed618b95804d44aecc17c300b585b0210378ee11c3fb97054877a809ce083db292b16d971bcdc6aa4c8f92087133729d8b21037af2e06061b54cdfe3657bbc8496d69000b822e2db0c86ccbe376346a700b83353aef85bf79a000000001976a9146c39ee7c8f3a5ffa6121b0304a7a0de9d3d9a15288ac00000000"
    },
    {
        "txid": "20ffe4012d5fc638309b2d087a15fb100d9194132633623bc4c23b4c2caf0150",
        "vout": 0,
        "address": "2MyJHMUenMWonC35Yi6PHC7i2tkS7PuomCy",
        "scriptPubKey": "a9144264cfd7eb65f8cbbdba98bd9815d5461fad8d7e87",
        "amount": 1.00000000,
        "confirmations": 6,
        "txhex" : "010000000632ffb2ab08a0a38845bb40259637caac934f86175e86a2d108e090c4585de60300000000fc0047304402201fd1e8c500662d841678b70a3f6d64ea893551e95960c842e6d7af784540e12102200e47946db51242a84b8833e01fc91686c9d33c191c611a07b683e08e7d6a177e01473044022035977058c500b0c8b174e3d671b6f87b6c65da0f36fb5243f9c07df1a699f135022003210709b308ed8dc728706d1c33fbc16ad1bde00204a89188932ae99fe31446014c695221020a2c7ec85effeafd29579e17ce8e647a7d19eaa75cc95d0c356cddbebff6da9e210365f35cc2ec54a66b380e434c31eb9f41cb27350fae248e872c0960823e8e396b210372262be0b9365820f84b44479dc80ca3e3e17cb8bdf985f8efb66cf66cb5e0ee53aeffffffffbde28e6a5aea67ba0563d370812619e90cd0c957b632d70493a7121aba0872aa01000000fdfd0000483045022100898a053e67557d7733af503db07a20b7a8659e70584221d391b908b7825bbead02206715f4cd26e95c99b86b38a47ad005c506610e5bca3a41877733cd79d9c5c1bf01473044022053a124521cf7ec3a6eb16e254129c95cdb769b3a0968462e014971108f1feb2b02204e6255ea2756edd6213cd4b5f3b38e9452c62bdfbcf6b68fb284660a75628dc9014c69522102b1444f6832aadc4c0df0a1b9c5090b8850a6a1c3283de01ebd6878eb4d8f88f12102d4d5726579c94606520b003df329587ada40bf996487893f07bb90df706a3c8921032ffae8b9df181577b35b7b5465f8f440548880585cf88679b8f312bf0c42e6e853aeffffffffa496ccd798e2763a9780d31820406c93e14bf83088a8ea8ec6632d7c61a0768601000000fdfd00004830450221009dd737c4840b28c4aeaca4ff8eed5285609df3ba2c25daf07bfdb050659268e102201d07ff2b56d2b621ddf3176935257c9f092a3dcd368f1ec22d16c59e5085d47c0147304402206ddc0b748018bcb1032c986aaee79f0b89d588a32a191d7663ca5f623aad009f02203c4e640e79dfd1dcdcdfa70bdf31117a23411bd1f4ff058058e641c23e15e7f8014c695221020946e8d9c012b8d0a022a0b501792c392176e9f643b6be0d738d0993d088ab1e21027c5ec5fa38d8802b360d6213c1eaebc4b24a4b4f0c817ec939e7497196c5a61f21029b78aa9b463e65a19d42b0275ca25ae2927468bb82f6d016fe349d373495b98853aeffffffff135c7fab39ef1a713b00d24cf7558fa64d00da9d927a8564dec36801d2ae922100000000fdfd000047304402200736af0cf2fa4a160020c012ec804173f75134ad61410c1d89ea3ac18058eb8602200c02f1da010d9e7846a83aaccda2f023e1ba7ced2b3420877a73eac5fcceb03901483045022100954b99b28e04b7c1ff906f439260ce83309076faa0b69bcec1b2b4572370845402206864457aae4129eaf58e90746e03702e1de35de936e825b7a3a9fff6422cc172014c69522103080f4455f6090e3834b8d449f5850f5989599faa90b14767942fc241efdf0a51210353aefbeab8995bbea3ffcef10f2942486ca45226ec8325d7ecfa1d2dfedf985a2103c7eb140bb55b05a2ebd11f03cf933b0b29b3397ab46d9e69af08e1376d778fc453aeffffffff3e6f7a4907728bbe3007670aba9b85bd896d5d87e8f6e0585d41d9443dcaeca200000000fdfd00004730440220588b1bd19f359f950d82d3590f2e093ba7837cc5d325a20c09b5585f9866153d0220373f8b293af6ab4deed5a8b34da6780809eaa96c322eb8b097773f4f6a2678f0014830450221009793d63151e8efdf53431adbe505f5534056e75785f4a70ff107652c531e3361022049a60c153174f1510027d2d6a18c89625b1288ea1416eb58dc3789218cb03604014c69522102cbe0c03cdb7745c2c806018a3ed73b4226a14bff140d4af7815b33514078a2b9210382c167d47faf5c7027fdcec17157e2ef53640e73dc4f79b6d457705b5df5cc7f2103b395d5d93e00fc491d94e180a605cf00e9e8479b4a1913da5824a681423e6fd353aeffffffff75ba5e9aa274e91124ea26ed060400037e3f91b92abc037229343b143b47981100000000fdfe0000483045022100992ff29fae67a9f07abd976b3cfc49f46b8589bea0a68a0f661c0033aef2d44b0220094e1aad5c5e14caec499d97a2915cf4ed7ce665ce83c3e036613b4702c4cad201483045022100ee9a87805af35fe3820b5de39b52e2878524200cc4905a33b2812b11790e345d022043090973e48e596ee1f4198442a43ce4fab56cede9cdc107b4d722e1cf88db81014c695221023303f474a4370bca913bc0c7f656fd7e8720fb6aee9b028561ed5b6fd19ed6832102c276d506c53bb6554ab7ad43a5b086a6ecd0c6f5682b8cad6c473243e93f167b210375cb618aa7adb5fd3b753536c4314678de0be5aafcdcd6486c2493413bed23d853aeffffffff0200e1f5050000000017a9144264cfd7eb65f8cbbdba98bd9815d5461fad8d7e87e8e496000000000017a9142dad8653f22b6e2cc350d7be3bdef2820cbe0ddf8700000000"
    }
]
