[
    {
        "address": "n3EHaCAycMEv6DhMPbrQsEubFsgtUmoin1",
        "amount": 0.0782457,
        "confirmations": 143,
        "scriptPubKey": "76a914ee2bc9e048c81b2b63506b2e5990cebf822b759288ac",
        "txhex": "010000000002ba647700000000001976a914ee2bc9e048c81b2b63506b2e5990cebf822b759288ac00c2eb0b000000001976a9144838d8b3588c4c7ba7c1d06f866e9b3739c6303788ac00000000",
        "txid": "00a02e4346f85013b1618527284c3cd58397a0b64d069b6640abaf9d771b5107",
        "vout": 0
    },
    {
        "address": "mqPCfvqTfYctXMUfmniXeG2nyaN8w6tPmj",
        "amount": 1.0782457,
        "confirmations": 143,
        "scriptPubKey": "76a9146c39ee7c8f3a5ffa6121b0304a7a0de9d3d9a15288ac",
        "txhex": "010000000002ba647700000000001976a9146c39ee7c8f3a5ffa6121b0304a7a0de9d3d9a15288ac00c2eb0b000000001976a9144838d8b3588c4c7ba7c1d06f866e9b3739c6303788ac00000000",
        "txid": "8cc3c406bc75e9aa0f7bdc96769abc342df49fcea857ad8f3785f373469ecf3e",
        "vout": 0
    },
    {
        "address": "munimLLHjPhGeSU5rYB2HN79LJa8bRZr5b",
        "amount": 1.0782457,
        "confirmations": 143,
        "scriptPubKey": "76a9149c8d1f5405451de6070bf1db86ab6accb495b62588ac",
        "txhex": "010000000002ba647700000000001976a9149c8d1f5405451de6070bf1db86ab6accb495b62588ac00c2eb0b000000001976a9144838d8b3588c4c7ba7c1d06f866e9b3739c6303788ac00000000",
        "txid": "1befa135e687812ab8a60678ac17f982daf008cd7094dc95fc65a0b8e4bd955e",
        "vout": 0
    },
    {
        "address": "mwtPsLQxW9xpm7gdLmwWvJK5ABdPUVJm42",
        "amount": 1.0782457,
        "confirmations": 143,
        "scriptPubKey": "76a914b390187ef2854422ac5e4a2eb6ffe92496bef52388ac",
        "txhex": "010000000002ba647700000000001976a914b390187ef2854422ac5e4a2eb6ffe92496bef52388ac00c2eb0b000000001976a9144838d8b3588c4c7ba7c1d06f866e9b3739c6303788ac00000000",
        "txid": "fea12706ef63c7ce57df3e1197b8b33e6a93ef2df07964ff654c14f1b900e17f",
        "vout": 0
    },
    {
        "address": "myAtcJEHAsDLbTkai6ipWDZeeL7VkxXsiM",
        "amount": 1.0782457,
        "confirmations": 143,
        "scriptPubKey": "76a914c1a6de504b9bc0d0d6987312b2e37564079791b788ac",
        "txhex": "010000000002ba647700000000001976a914c1a6de504b9bc0d0d6987312b2e37564079791b788ac00c2eb0b000000001976a9144838d8b3588c4c7ba7c1d06f866e9b3739c6303788ac00000000",
        "txid": "c018d940b7d338e57e121cbbb1880fdd8f4444d950ea041cdca17016fd320be8",
        "vout": 0
    },
    {
        "address": "mr5w8pZ8CffT9G33KQJWJzVrpt7J28w7U3",
        "amount": 5.43e-05,
        "confirmations": 280,
        "scriptPubKey": "76a91473ee04557ef514ba1fb1277f5cb13dec3dd6873f88ac",
        "txhex": "01000000000336150000000000001976a91473ee04557ef514ba1fb1277f5cb13dec3dd6873f88ac054cb507000000001976a9144838d8b3588c4c7ba7c1d06f866e9b3739c6303788ac0000000000000000306a2e5445535400000028000152b63a290000000077359400000000003b9aca000000000000000000000013b00000003c00000000",
        "txid": "192f789889b5dedf82e80f1b86079ee81b26892e28a14ae0f034e7ff86ffe935",
        "vout": 0
    },
    {
        "address": "n3BrDB6zDiEPWEE6wLxywFb4Yp9ZY5fHM7",
        "amount": 5.43e-05,
        "confirmations": 139,
        "scriptPubKey": "76a914edb5c902eadd71e698a8ce05ba1d7b31efbaa57b88ac",
        "txhex": "01000000000336150000000000001976a914edb5c902eadd71e698a8ce05ba1d7b31efbaa57b88acbd7d5d05000000001976a9144838d8b3588c4c7ba7c1d06f866e9b3739c6303788ac0000000000000000306a2e5445535400000028000152b77637000000000c8458800000000005f5e100408f88000000000000001eb30000001e00000000",
        "txid": "1bf0a2fcc7fe29d4d2d9747c4eda7061510baade3ea925193606df7a37e5595e",
        "vout": 0
    },
    {
        "address": "n3BrDB6zDiEPWEE6wLxywFb4Yp9ZY5fHM7",
        "amount": 5.43e-05,
        "confirmations": 142,
        "scriptPubKey": "76a914edb5c902eadd71e698a8ce05ba1d7b31efbaa57b88ac",
        "txhex": "01000000000336150000000000001976a914edb5c902eadd71e698a8ce05ba1d7b31efbaa57b88acba85eb0b000000001976a9144838d8b3588c4c7ba7c1d06f866e9b3739c6303788ac0000000000000000306a2e5445535400000028000152b776370000000005f5e100000000000c845880408f88000000000000001eb30000001e00000000",
        "txid": "21f679e1569b96c3e7a63250e22da5eee57d3f25baa09ced69ade197a979e31f",
        "vout": 0
    },
    {
        "address": "n3BrDB6zDiEPWEE6wLxywFb4Yp9ZY5fHM7",
        "amount": 5.43e-05,
        "confirmations": 140,
        "scriptPubKey": "76a914edb5c902eadd71e698a8ce05ba1d7b31efbaa57b88ac",
        "txhex": "01000000000336150000000000001976a914edb5c902eadd71e698a8ce05ba1d7b31efbaa57b88ac49f65d05000000001976a9144838d8b3588c4c7ba7c1d06f866e9b3739c6303788ac0000000000000000306a2e5445535400000028000052b77637000000000d1cef000000000005f5e100408f880000000000000027600000001e00000000",
        "txid": "2479cdb202fe8379a5b2be195c97f9bb9dcb13097e5228787dc81ed7382c1b0d",
        "vout": 0
    },
    {
        "address": "mr5w8pZ8CffT9G33KQJWJzVrpt7J28w7U3",
        "amount": 5.43e-05,
        "confirmations": 280,
        "scriptPubKey": "76a91473ee04557ef514ba1fb1277f5cb13dec3dd6873f88ac",
        "txhex": "01000000000336150000000000001976a91473ee04557ef514ba1fb1277f5cb13dec3dd6873f88ac4c88b507000000001976a9144838d8b3588c4c7ba7c1d06f866e9b3739c6303788ac0000000000000000306a2e5445535400000028000052b63a29000000003b9aca0000000000773594000000000000000000000013b00000003c00000000",
        "txid": "2becb53164d1ebd6045695626451adb35b98fc8258e54b00ef006caacfb4294f",
        "vout": 0
    },
    {
        "address": "n3BrDB6zDiEPWEE6wLxywFb4Yp9ZY5fHM7",
        "amount": 5.43e-05,
        "confirmations": 145,
        "scriptPubKey": "76a914edb5c902eadd71e698a8ce05ba1d7b31efbaa57b88ac",
        "txhex": "01000000000336150000000000001976a914edb5c902eadd71e698a8ce05ba1d7b31efbaa57b88accbe32807000000001976a9144838d8b3588c4c7ba7c1d06f866e9b3739c6303788ac0000000000000000306a2e5445535400000028000052b7763700000002540be40000000004a817c800408f880000000000000027600000001e00000000",
        "txid": "4c2e09d9a4ac03d2f2aa5b564c0df2f0d099e6ad012b8697100c9e30b1903988",
        "vout": 0
    },
    {
        "address": "n3BrDB6zDiEPWEE6wLxywFb4Yp9ZY5fHM7",
        "amount": 5.43e-05,
        "confirmations": 140,
        "scriptPubKey": "76a914edb5c902eadd71e698a8ce05ba1d7b31efbaa57b88ac",
        "txhex": "01000000000336150000000000001976a914edb5c902eadd71e698a8ce05ba1d7b31efbaa57b88ac8f325e05000000001976a9144838d8b3588c4c7ba7c1d06f866e9b3739c6303788ac0000000000000000306a2e5445535400000028000052b77637000000000c8458800000000005f5e100408f880000000000000027600000001e00000000",
        "txid": "5cb0d59fcea4c55ffd3c45f8a5c0f1c6a9d91c6836d2112fc65e5b7c907cf43a",
        "vout": 0
    },
    {
        "address": "n3BrDB6zDiEPWEE6wLxywFb4Yp9ZY5fHM7",
        "amount": 5.43e-05,
        "confirmations": 139,
        "scriptPubKey": "76a914edb5c902eadd71e698a8ce05ba1d7b31efbaa57b88ac",
        "txhex": "01000000000336150000000000001976a914edb5c902eadd71e698a8ce05ba1d7b31efbaa57b88ac03ba5d05000000001976a9144838d8b3588c4c7ba7c1d06f866e9b3739c6303788ac0000000000000000306a2e5445535400000028000152b77637000000001a39de00000000000bebc200408f880000000000000027600000001e00000000",
        "txid": "8fe5800bc31934935128cdb730c5ce82609ba574757cc3c2373478f7c25f9296",
        "vout": 0
    },
    {
        "address": "n3BrDB6zDiEPWEE6wLxywFb4Yp9ZY5fHM7",
        "amount": 5.43e-05,
        "confirmations": 141,
        "scriptPubKey": "76a914edb5c902eadd71e698a8ce05ba1d7b31efbaa57b88ac",
        "txhex": "01000000000336150000000000001976a914edb5c902eadd71e698a8ce05ba1d7b31efbaa57b88ac7449eb0b000000001976a9144838d8b3588c4c7ba7c1d06f866e9b3739c6303788ac0000000000000000306a2e5445535400000028000152b776370000000005f5e100000000000c845880408f880000000000000027600000001e00000000",
        "txid": "92ab34d58cb4ee8e870047ba9ad122bb0b63736021ec2e59d8a0b25608d11184",
        "vout": 0
    },
    {
        "account": "",
        "address": "mnkzHBHRkBWoP9aFtocDe5atxmRfSRHnjR",
        "amount": 5.43e-05,
        "confirmations": 318,
        "scriptPubKey": "76a9144f705c616359ce6145a822d41a6c079fba102f7388ac",
        "txhex": "01000000000336150000000000001976a9144f705c616359ce6145a822d41a6c079fba102f7388ac1a66fa02000000001976a9144838d8b3588c4c7ba7c1d06f866e9b3739c6303788ac00000000000000001a6a1854455354000000000000000000000004000000003b9aca0000000000",
        "txid": "96ada5fb5f2f85b7384b5c3d5505a7a107cb1d34a260cd672d85b0adc2ddd79d",
        "vout": 0
    },
    {
        "address": "n3BrDB6zDiEPWEE6wLxywFb4Yp9ZY5fHM7",
        "amount": 5.43e-05,
        "confirmations": 145,
        "scriptPubKey": "76a914edb5c902eadd71e698a8ce05ba1d7b31efbaa57b88ac",
        "txhex": "01000000000336150000000000001976a914edb5c902eadd71e698a8ce05ba1d7b31efbaa57b88ac85a72807000000001976a9144838d8b3588c4c7ba7c1d06f866e9b3739c6303788ac0000000000000000306a2e5445535400000028000152b7763700000002540be40000000004e3b29200408f88000000000000001eb30000001e00000000",
        "txid": "a09a0df612afb1dc0eb8709dccb1a70da24a1062e137cb927892b7a3cbde1616",
        "vout": 0
    },
    {
        "address": "mwPwzBt5DztmswsXvokMLzPMMuzbRqN7Zs",
        "amount": 0.1356199,
        "confirmations": 359,
        "scriptPubKey": "76a914ae2ed7fb5e1e9afd6d1ca3d46342f8dc8d2273a388ac",
        "txhex": "01000000000286f0ce00000000001976a914ae2ed7fb5e1e9afd6d1ca3d46342f8dc8d2273a388ac40420f00000000001976a914a1daf5037fc5f5219e3dd6bf14384c5957abed3588ac00000000",
        "txid": "ad06a9a1fc857b481c30fcd958e7e2bbe0b4ceb6d16639b5724de1f210faf3ae",
        "vout": 0
    },
    {
        "account": "",
        "address": "mn6q3dS2EnDUx3bmyWc6D4szJNVGtaR7zc",
        "amount": 1.9990914,
        "confirmations": 74,
        "scriptPubKey": "76a9144838d8b3588c4c7ba7c1d06f866e9b3739c6303788ac",
        "txhex": "010000000002145fea0b000000001976a9144838d8b3588c4c7ba7c1d06f866e9b3739c6303788ac0000000000000000346a32544553540000000a00000000000000010000000005f5e1000000000000000000000000000bebc2000032000000000000271000000000",
        "txid": "ae241be7be83ebb14902757ad94854f787d9730fc553d6f695346c9375c0d8c1",
        "vout": 0
    },
    {
        "address": "mtQheFaSfWELRB2MyMBaiWjdDm6ux9Ezns",
        "amount": 0.11121663,
        "confirmations": 74,
        "scriptPubKey": "76a9148d6ae8a3b381663118b4e1eff4cfc7d0954dd6ec88ac",
        "txhex": "010000000002ffb3a900000000001976a9148d6ae8a3b381663118b4e1eff4cfc7d0954dd6ec88ac0065cd1d000000001976a914d1ba3ba3d6f5ad06b148bcc04151ecab84fc397988ac00000000",
        "txid": "b9fc3aa355b77ecb63282fc96e63912a253e98bf9cf441fbfbecc3fb277c4985",
        "vout": 0
    },
    {
        "address": "n3BrDB6zDiEPWEE6wLxywFb4Yp9ZY5fHM7",
        "amount": 5.43e-05,
        "confirmations": 281,
        "scriptPubKey": "76a914edb5c902eadd71e698a8ce05ba1d7b31efbaa57b88ac",
        "txhex": "01000000000336150000000000001976a914edb5c902eadd71e698a8ce05ba1d7b31efbaa57b88ac92c4b507000000001976a9144838d8b3588c4c7ba7c1d06f866e9b3739c6303788ac0000000000000000306a2e5445535400000028000152b596c4000000001dcd6500000000001dcd6500000000000000000000004ec00000003c00000000",
        "txid": "eeb620a74ac8b7fa62e272788bf0050fa9fe687816864f13144f6efc7006ea16",
        "vout": 0
    },
    {
        "address": "mtQheFaSfWELRB2MyMBaiWjdDm6ux9Ezns",
        "amount": 1.0,
        "confirmations": 2,
        "scriptPubKey": "76a9148d6ae8a3b381663118b4e1eff4cfc7d0954dd6ec88ac",
        "txhex": "01000000000100e1f505000000001976a9148d6ae8a3b381663118b4e1eff4cfc7d0954dd6ec88ac00000000",
        "txid": "e43c357b78baf473fd21cbc1481ac450746b60cf1d2702ce3a73a8811811e3eb",
        "vout": 0
    },
    {
        "address": "mnfAHmddVibnZNSkh8DvKaQoiEfNsxjXzH",
        "amount": 1.934276,
        "confirmations": 6,
        "scriptPubKey": "76a9144e5638a01efbb2f292481797ae1dcfcdaeb98d0088ac",
        "txhex": "01000000000200a3e111000000001976a9148b11880510113f68d20053f710fc6440d97ea7c188ac9078870b000000001976a9144e5638a01efbb2f292481797ae1dcfcdaeb98d0088ac00000000",
        "txid": "dc4f91c42eb79898b266ee237eed0d501b8b1a843f69aed847ad740e1933f85e",
        "vout": 1
    },
    {
        "address": "1_mn6q3dS2EnDUx3bmyWc6D4szJNVGtaR7zc_mtQheFaSfWELRB2MyMBaiWjdDm6ux9Ezns_2",
        "amount": 1.0,
        "confirmations": 6,
        "scriptPubKey": "51210282b886c087eb37dc8182f14ba6cc3e9485ed618b95804d44aecc17c300b585b0210319f6e07b0b8d756156394b9dcf3b011fe9ac19f2700bd6b69a6a1783dbb8b97752ae",
        "txhex": "01000000000200e1f505000000004751210282b886c087eb37dc8182f14ba6cc3e9485ed618b95804d44aecc17c300b585b0210319f6e07b0b8d756156394b9dcf3b011fe9ac19f2700bd6b69a6a1783dbb8b97752aef8d2b01c000000001976a9146c39ee7c8f3a5ffa6121b0304a7a0de9d3d9a15288ac00000000",
        "txid": "5f00a83de4b1acc6a510a03552679041fffaae22de1fffdbe309a36bb6111505",
        "vout": 0
    },
    {
        "address": "1_mn6q3dS2EnDUx3bmyWc6D4szJNVGtaR7zc_mtQheFaSfWELRB2MyMBaiWjdDm6ux9Ezns_2",
        "amount": 1.0,
        "confirmations": 6,
        "scriptPubKey": "51210282b886c087eb37dc8182f14ba6cc3e9485ed618b95804d44aecc17c300b585b0210319f6e07b0b8d756156394b9dcf3b011fe9ac19f2700bd6b69a6a1783dbb8b97752ae",
        "txhex": "01000000000200e1f505000000004751210282b886c087eb37dc8182f14ba6cc3e9485ed618b95804d44aecc17c300b585b0210319f6e07b0b8d756156394b9dcf3b011fe9ac19f2700bd6b69a6a1783dbb8b97752ae20ed9b0d000000001976a9146c39ee7c8f3a5ffa6121b0304a7a0de9d3d9a15288ac00000000",
        "txid": "9d34af75fca5282eb97f1aba6cf0f23e78556e6fc04a16e013351d841093d539",
        "vout": 0
    },
    {
        "address": "1_mnfAHmddVibnZNSkh8DvKaQoiEfNsxjXzH_mtQheFaSfWELRB2MyMBaiWjdDm6ux9Ezns_2",
        "amount": 1.5,
        "confirmations": 6,
        "scriptPubKey": "51210319f6e07b0b8d756156394b9dcf3b011fe9ac19f2700bd6b69a6a1783dbb8b977210378ee11c3fb97054877a809ce083db292b16d971bcdc6aa4c8f92087133729d8b52ae",
        "txhex": "01000000000280d1f008000000004751210319f6e07b0b8d756156394b9dcf3b011fe9ac19f2700bd6b69a6a1783dbb8b977210378ee11c3fb97054877a809ce083db292b16d971bcdc6aa4c8f92087133729d8b52ae30f59113000000001976a9146c39ee7c8f3a5ffa6121b0304a7a0de9d3d9a15288ac00000000",
        "txid": "5f4aa5addf4d37d63ad251bd8ce46e425a9f0ab34ffe67926e6d56a8bf75aa72",
        "vout": 0
    },
    {
        "address": "2_mn6q3dS2EnDUx3bmyWc6D4szJNVGtaR7zc_mtQheFaSfWELRB2MyMBaiWjdDm6ux9Ezns_2",
        "amount": 3.0,
        "confirmations": 6,
        "scriptPubKey": "52210282b886c087eb37dc8182f14ba6cc3e9485ed618b95804d44aecc17c300b585b0210319f6e07b0b8d756156394b9dcf3b011fe9ac19f2700bd6b69a6a1783dbb8b97752ae",
        "txhex": "01000000000200a3e111000000004752210282b886c087eb37dc8182f14ba6cc3e9485ed618b95804d44aecc17c300b585b0210319f6e07b0b8d756156394b9dcf3b011fe9ac19f2700bd6b69a6a1783dbb8b97752ae68e22318010000001976a9146c39ee7c8f3a5ffa6121b0304a7a0de9d3d9a15288ac00000000",
        "txid": "070bfe81412d873fb6ff08ae5c6463b4c6cea39894b46fb574af7fd86fd417bc",
        "vout": 0
    },
    {
        "address": "2_mnfAHmddVibnZNSkh8DvKaQoiEfNsxjXzH_mtQheFaSfWELRB2MyMBaiWjdDm6ux9Ezns_2",
        "amount": 3.0,
        "confirmations": 6,
        "scriptPubKey": "52210319f6e07b0b8d756156394b9dcf3b011fe9ac19f2700bd6b69a6a1783dbb8b977210378ee11c3fb97054877a809ce083db292b16d971bcdc6aa4c8f92087133729d8b52ae",
        "txhex": "01000000000200a3e111000000004752210319f6e07b0b8d756156394b9dcf3b011fe9ac19f2700bd6b69a6a1783dbb8b977210378ee11c3fb97054877a809ce083db292b16d971bcdc6aa4c8f92087133729d8b52ae58184206010000001976a9146c39ee7c8f3a5ffa6121b0304a7a0de9d3d9a15288ac00000000",
        "txid": "91fbeea32ba9e3db00093cf79da1ecc9a226e23ae5ef00041a49f2c757d86f5e",
        "vout": 0
    },
    {
        "address": "1_mn6q3dS2EnDUx3bmyWc6D4szJNVGtaR7zc_mnfAHmddVibnZNSkh8DvKaQoiEfNsxjXzH_mtQheFaSfWELRB2MyMBaiWjdDm6ux9Ezns_3",
        "amount": 3.0,
        "confirmations": 6,
        "scriptPubKey": "51210282b886c087eb37dc8182f14ba6cc3e9485ed618b95804d44aecc17c300b585b0210319f6e07b0b8d756156394b9dcf3b011fe9ac19f2700bd6b69a6a1783dbb8b977210378ee11c3fb97054877a809ce083db292b16d971bcdc6aa4c8f92087133729d8b53ae",
        "txhex": "01000000000200a3e111000000006951210282b886c087eb37dc8182f14ba6cc3e9485ed618b95804d44aecc17c300b585b0210319f6e07b0b8d756156394b9dcf3b011fe9ac19f2700bd6b69a6a1783dbb8b977210378ee11c3fb97054877a809ce083db292b16d971bcdc6aa4c8f92087133729d8b53ae484e60f4000000001976a9146c39ee7c8f3a5ffa6121b0304a7a0de9d3d9a15288ac00000000",
        "txid": "f4011d923cf1819a8949f430b008b67a179e19772c73dcf55199f69fc54ef8a7",
        "vout": 0
    },
    {
        "address": "1_mn6q3dS2EnDUx3bmyWc6D4szJNVGtaR7zc_mnfAHmddVibnZNSkh8DvKaQoiEfNsxjXzH_mqPCfvqTfYctXMUfmniXeG2nyaN8w6tPmj_3",
        "amount": 3.0,
        "confirmations": 6,
        "scriptPubKey": "51210282b886c087eb37dc8182f14ba6cc3e9485ed618b95804d44aecc17c300b585b0210378ee11c3fb97054877a809ce083db292b16d971bcdc6aa4c8f92087133729d8b21037af2e06061b54cdfe3657bbc8496d69000b822e2db0c86ccbe376346a700b83353ae",
        "txhex": "01000000000200a3e111000000006951210282b886c087eb37dc8182f14ba6cc3e9485ed618b95804d44aecc17c300b585b0210378ee11c3fb97054877a809ce083db292b16d971bcdc6aa4c8f92087133729d8b21037af2e06061b54cdfe3657bbc8496d69000b822e2db0c86ccbe376346a700b83353ae38847ee2000000001976a9146c39ee7c8f3a5ffa6121b0304a7a0de9d3d9a15288ac00000000",
        "txid": "02f95716d3c93a1e81b926d9d8d5f05b6f382c115d9ecf0dd0bc9514b0e08649",
        "vout": 0
    },
    {
        "address": "2_mn6q3dS2EnDUx3bmyWc6D4szJNVGtaR7zc_mnfAHmddVibnZNSkh8DvKaQoiEfNsxjXzH_mtQheFaSfWELRB2MyMBaiWjdDm6ux9Ezns_3",
        "amount": 3.0,
        "confirmations": 6,
        "scriptPubKey": "52210282b886c087eb37dc8182f14ba6cc3e9485ed618b95804d44aecc17c300b585b0210319f6e07b0b8d756156394b9dcf3b011fe9ac19f2700bd6b69a6a1783dbb8b977210378ee11c3fb97054877a809ce083db292b16d971bcdc6aa4c8f92087133729d8b53ae",
        "txhex": "01000000000200a3e111000000006952210282b886c087eb37dc8182f14ba6cc3e9485ed618b95804d44aecc17c300b585b0210319f6e07b0b8d756156394b9dcf3b011fe9ac19f2700bd6b69a6a1783dbb8b977210378ee11c3fb97054877a809ce083db292b16d971bcdc6aa4c8f92087133729d8b53ae28ba9cd0000000001976a9146c39ee7c8f3a5ffa6121b0304a7a0de9d3d9a15288ac00000000",
        "txid": "d331d71f0f5d5f62261d6f18019459f9a0711c1fa0a0e38004386319cefbccfc",
        "vout": 0
    },
    {
        "address": "2_mn6q3dS2EnDUx3bmyWc6D4szJNVGtaR7zc_mnfAHmddVibnZNSkh8DvKaQoiEfNsxjXzH_mqPCfvqTfYctXMUfmniXeG2nyaN8w6tPmj_3",
        "amount": 3.0,
        "confirmations": 6,
        "scriptPubKey": "52210282b886c087eb37dc8182f14ba6cc3e9485ed618b95804d44aecc17c300b585b0210378ee11c3fb97054877a809ce083db292b16d971bcdc6aa4c8f92087133729d8b21037af2e06061b54cdfe3657bbc8496d69000b822e2db0c86ccbe376346a700b83353ae",
        "txhex": "01000000000200a3e111000000006952210282b886c087eb37dc8182f14ba6cc3e9485ed618b95804d44aecc17c300b585b0210378ee11c3fb97054877a809ce083db292b16d971bcdc6aa4c8f92087133729d8b21037af2e06061b54cdfe3657bbc8496d69000b822e2db0c86ccbe376346a700b83353ae18f0babe000000001976a9146c39ee7c8f3a5ffa6121b0304a7a0de9d3d9a15288ac00000000",
        "txid": "8ca0d52b413cd1a3eaf6ffb61a20e376bbde3952fdb5e6d812f7ad5238486e02",
        "vout": 0
    },
    {
        "address": "3_mn6q3dS2EnDUx3bmyWc6D4szJNVGtaR7zc_mnfAHmddVibnZNSkh8DvKaQoiEfNsxjXzH_mtQheFaSfWELRB2MyMBaiWjdDm6ux9Ezns_3",
        "amount": 3.0,
        "confirmations": 6,
        "scriptPubKey": "53210282b886c087eb37dc8182f14ba6cc3e9485ed618b95804d44aecc17c300b585b0210319f6e07b0b8d756156394b9dcf3b011fe9ac19f2700bd6b69a6a1783dbb8b977210378ee11c3fb97054877a809ce083db292b16d971bcdc6aa4c8f92087133729d8b53ae",
        "txhex": "01000000000200a3e111000000006953210282b886c087eb37dc8182f14ba6cc3e9485ed618b95804d44aecc17c300b585b0210319f6e07b0b8d756156394b9dcf3b011fe9ac19f2700bd6b69a6a1783dbb8b977210378ee11c3fb97054877a809ce083db292b16d971bcdc6aa4c8f92087133729d8b53ae0826d9ac000000001976a9146c39ee7c8f3a5ffa6121b0304a7a0de9d3d9a15288ac00000000",
        "txid": "39091e24e0d0e3aae34250d89d4b7ec8c46778c457c4b2f401ed8b35945a8440",
        "vout": 0
    },
    {
        "address": "3_mn6q3dS2EnDUx3bmyWc6D4szJNVGtaR7zc_mnfAHmddVibnZNSkh8DvKaQoiEfNsxjXzH_mqPCfvqTfYctXMUfmniXeG2nyaN8w6tPmj_3",
        "amount": 3.0,
        "confirmations": 6,
        "scriptPubKey": "53210282b886c087eb37dc8182f14ba6cc3e9485ed618b95804d44aecc17c300b585b0210378ee11c3fb97054877a809ce083db292b16d971bcdc6aa4c8f92087133729d8b21037af2e06061b54cdfe3657bbc8496d69000b822e2db0c86ccbe376346a700b83353ae",
        "txhex": "01000000000200a3e111000000006953210282b886c087eb37dc8182f14ba6cc3e9485ed618b95804d44aecc17c300b585b0210378ee11c3fb97054877a809ce083db292b16d971bcdc6aa4c8f92087133729d8b21037af2e06061b54cdfe3657bbc8496d69000b822e2db0c86ccbe376346a700b83353aef85bf79a000000001976a9146c39ee7c8f3a5ffa6121b0304a7a0de9d3d9a15288ac00000000",
        "txid": "057e944eae80cb9ff07887da27306d59020da264b6534fd1842b80105b0efef4",
        "vout": 0
    },
    {
        "address": "2MyJHMUenMWonC35Yi6PHC7i2tkS7PuomCy",
        "amount": 1.0,
        "confirmations": 6,
        "scriptPubKey": "a9144264cfd7eb65f8cbbdba98bd9815d5461fad8d7e87",
        "txhex": "01000000000200e1f5050000000017a9144264cfd7eb65f8cbbdba98bd9815d5461fad8d7e87e8e496000000000017a9142dad8653f22b6e2cc350d7be3bdef2820cbe0ddf8700000000",
        "txid": "20ffe4012d5fc638309b2d087a15fb100d9194132633623bc4c23b4c2caf0150",
        "vout": 0
    }
]